{
  "_format": "hh-sol-artifact-1",
  "contractName": "Medium",
  "sourceName": "contracts/Medium.sol",
  "abi": [
    {
      "inputs": [
        {
          "internalType": "string",
          "name": "name_",
          "type": "string"
        },
        {
          "internalType": "string",
          "name": "symbol_",
          "type": "string"
        },
        {
          "internalType": "uint256",
          "name": "fees_",
          "type": "uint256"
        }
      ],
      "stateMutability": "nonpayable",
      "type": "constructor"
    },
    {
      "anonymous": false,
      "inputs": [
        {
          "indexed": true,
          "internalType": "address",
          "name": "owner",
          "type": "address"
        },
        {
          "indexed": true,
          "internalType": "address",
          "name": "approved",
          "type": "address"
        },
        {
          "indexed": true,
          "internalType": "uint256",
          "name": "tokenId",
          "type": "uint256"
        }
      ],
      "name": "Approval",
      "type": "event"
    },
    {
      "anonymous": false,
      "inputs": [
        {
          "indexed": true,
          "internalType": "address",
          "name": "owner",
          "type": "address"
        },
        {
          "indexed": true,
          "internalType": "address",
          "name": "operator",
          "type": "address"
        },
        {
          "indexed": false,
          "internalType": "bool",
          "name": "approved",
          "type": "bool"
        }
      ],
      "name": "ApprovalForAll",
      "type": "event"
    },
    {
      "anonymous": false,
      "inputs": [
        {
          "indexed": true,
          "internalType": "address",
          "name": "previousOwner",
          "type": "address"
        },
        {
          "indexed": true,
          "internalType": "address",
          "name": "newOwner",
          "type": "address"
        }
      ],
      "name": "OwnershipTransferred",
      "type": "event"
    },
    {
      "anonymous": false,
      "inputs": [
        {
          "indexed": true,
          "internalType": "address",
          "name": "from",
          "type": "address"
        },
        {
          "indexed": true,
          "internalType": "address",
          "name": "to",
          "type": "address"
        },
        {
          "indexed": true,
          "internalType": "uint256",
          "name": "tokenId",
          "type": "uint256"
        }
      ],
      "name": "Transfer",
      "type": "event"
    },
    {
      "inputs": [
        {
          "internalType": "address",
          "name": "to",
          "type": "address"
        },
        {
          "internalType": "uint256",
          "name": "tokenId",
          "type": "uint256"
        }
      ],
      "name": "approve",
      "outputs": [],
      "stateMutability": "nonpayable",
      "type": "function"
    },
    {
      "inputs": [
        {
          "internalType": "address",
          "name": "owner",
          "type": "address"
        }
      ],
      "name": "balanceOf",
      "outputs": [
        {
          "internalType": "uint256",
          "name": "",
          "type": "uint256"
        }
      ],
      "stateMutability": "view",
      "type": "function"
    },
    {
      "inputs": [],
      "name": "fees",
      "outputs": [
        {
          "internalType": "uint256",
          "name": "",
          "type": "uint256"
        }
      ],
      "stateMutability": "view",
      "type": "function"
    },
    {
      "inputs": [
        {
          "internalType": "uint256",
          "name": "tokenId",
          "type": "uint256"
        }
      ],
      "name": "getApproved",
      "outputs": [
        {
          "internalType": "address",
          "name": "",
          "type": "address"
        }
      ],
      "stateMutability": "view",
      "type": "function"
    },
    {
      "inputs": [
        {
          "internalType": "address",
          "name": "owner",
          "type": "address"
        },
        {
          "internalType": "address",
          "name": "operator",
          "type": "address"
        }
      ],
      "name": "isApprovedForAll",
      "outputs": [
        {
          "internalType": "bool",
          "name": "",
          "type": "bool"
        }
      ],
      "stateMutability": "view",
      "type": "function"
    },
    {
      "inputs": [],
      "name": "name",
      "outputs": [
        {
          "internalType": "string",
          "name": "",
          "type": "string"
        }
      ],
      "stateMutability": "view",
      "type": "function"
    },
    {
      "inputs": [],
      "name": "owner",
      "outputs": [
        {
          "internalType": "address",
          "name": "",
          "type": "address"
        }
      ],
      "stateMutability": "view",
      "type": "function"
    },
    {
      "inputs": [
        {
          "internalType": "uint256",
          "name": "tokenId",
          "type": "uint256"
        }
      ],
      "name": "ownerOf",
      "outputs": [
        {
          "internalType": "address",
          "name": "",
          "type": "address"
        }
      ],
      "stateMutability": "view",
      "type": "function"
    },
    {
      "inputs": [],
      "name": "renounceOwnership",
      "outputs": [],
      "stateMutability": "nonpayable",
      "type": "function"
    },
    {
      "inputs": [
        {
          "internalType": "address",
          "name": "to",
          "type": "address"
        },
        {
          "internalType": "string",
          "name": "_tokenURI",
          "type": "string"
        }
      ],
      "name": "safeMint",
      "outputs": [],
      "stateMutability": "payable",
      "type": "function"
    },
    {
      "inputs": [
        {
          "internalType": "address",
          "name": "from",
          "type": "address"
        },
        {
          "internalType": "address",
          "name": "to",
          "type": "address"
        },
        {
          "internalType": "uint256",
          "name": "tokenId",
          "type": "uint256"
        }
      ],
      "name": "safeTransferFrom",
      "outputs": [],
      "stateMutability": "nonpayable",
      "type": "function"
    },
    {
      "inputs": [
        {
          "internalType": "address",
          "name": "from",
          "type": "address"
        },
        {
          "internalType": "address",
          "name": "to",
          "type": "address"
        },
        {
          "internalType": "uint256",
          "name": "tokenId",
          "type": "uint256"
        },
        {
          "internalType": "bytes",
          "name": "data",
          "type": "bytes"
        }
      ],
      "name": "safeTransferFrom",
      "outputs": [],
      "stateMutability": "nonpayable",
      "type": "function"
    },
    {
      "inputs": [
        {
          "internalType": "address",
          "name": "operator",
          "type": "address"
        },
        {
          "internalType": "bool",
          "name": "approved",
          "type": "bool"
        }
      ],
      "name": "setApprovalForAll",
      "outputs": [],
      "stateMutability": "nonpayable",
      "type": "function"
    },
    {
      "inputs": [
        {
          "internalType": "bytes4",
          "name": "interfaceId",
          "type": "bytes4"
        }
      ],
      "name": "supportsInterface",
      "outputs": [
        {
          "internalType": "bool",
          "name": "",
          "type": "bool"
        }
      ],
      "stateMutability": "view",
      "type": "function"
    },
    {
      "inputs": [],
      "name": "symbol",
      "outputs": [
        {
          "internalType": "string",
          "name": "",
          "type": "string"
        }
      ],
      "stateMutability": "view",
      "type": "function"
    },
    {
      "inputs": [
        {
          "internalType": "uint256",
          "name": "tokenId",
          "type": "uint256"
        }
      ],
      "name": "tokenURI",
      "outputs": [
        {
          "internalType": "string",
          "name": "",
          "type": "string"
        }
      ],
      "stateMutability": "view",
      "type": "function"
    },
    {
      "inputs": [
        {
          "internalType": "address",
          "name": "from",
          "type": "address"
        },
        {
          "internalType": "address",
          "name": "to",
          "type": "address"
        },
        {
          "internalType": "uint256",
          "name": "tokenId",
          "type": "uint256"
        }
      ],
      "name": "transferFrom",
      "outputs": [],
      "stateMutability": "nonpayable",
      "type": "function"
    },
    {
      "inputs": [
        {
          "internalType": "address",
          "name": "newOwner",
          "type": "address"
        }
      ],
      "name": "transferOwnership",
      "outputs": [],
      "stateMutability": "nonpayable",
      "type": "function"
    }
  ],
  "bytecode": "0x60806040523480156200001157600080fd5b50604051620033cb380380620033cb8339818101604052810190620000379190620003f3565b82828160009080519060200190620000519291906200016b565b5080600190805190602001906200006a9291906200016b565b5050506200008d620000816200009d60201b60201c565b620000a560201b60201c565b80600981905550505050620004f2565b600033905090565b6000600760009054906101000a900473ffffffffffffffffffffffffffffffffffffffff16905081600760006101000a81548173ffffffffffffffffffffffffffffffffffffffff021916908373ffffffffffffffffffffffffffffffffffffffff1602179055508173ffffffffffffffffffffffffffffffffffffffff168173ffffffffffffffffffffffffffffffffffffffff167f8be0079c531659141344cd1fd0a4f28419497f9722a3daafe3b4186f6b6457e060405160405180910390a35050565b8280546200017990620004bc565b90600052602060002090601f0160209004810192826200019d5760008555620001e9565b82601f10620001b857805160ff1916838001178555620001e9565b82800160010185558215620001e9579182015b82811115620001e8578251825591602001919060010190620001cb565b5b509050620001f89190620001fc565b5090565b5b8082111562000217576000816000905550600101620001fd565b5090565b6000604051905090565b600080fd5b600080fd5b600080fd5b600080fd5b6000601f19601f8301169050919050565b7f4e487b7100000000000000000000000000000000000000000000000000000000600052604160045260246000fd5b620002848262000239565b810181811067ffffffffffffffff82111715620002a657620002a56200024a565b5b80604052505050565b6000620002bb6200021b565b9050620002c9828262000279565b919050565b600067ffffffffffffffff821115620002ec57620002eb6200024a565b5b620002f78262000239565b9050602081019050919050565b60005b838110156200032457808201518184015260208101905062000307565b8381111562000334576000848401525b50505050565b6000620003516200034b84620002ce565b620002af565b90508281526020810184848401111562000370576200036f62000234565b5b6200037d84828562000304565b509392505050565b600082601f8301126200039d576200039c6200022f565b5b8151620003af8482602086016200033a565b91505092915050565b6000819050919050565b620003cd81620003b8565b8114620003d957600080fd5b50565b600081519050620003ed81620003c2565b92915050565b6000806000606084860312156200040f576200040e62000225565b5b600084015167ffffffffffffffff81111562000430576200042f6200022a565b5b6200043e8682870162000385565b935050602084015167ffffffffffffffff8111156200046257620004616200022a565b5b620004708682870162000385565b92505060406200048386828701620003dc565b9150509250925092565b7f4e487b7100000000000000000000000000000000000000000000000000000000600052602260045260246000fd5b60006002820490506001821680620004d557607f821691505b60208210811415620004ec57620004eb6200048d565b5b50919050565b612ec980620005026000396000f3fe6080604052600436106101095760003560e01c80638da5cb5b11610095578063b88d4fde11610064578063b88d4fde14610369578063c87b56dd14610392578063d204c45e146103cf578063e985e9c5146103eb578063f2fde38b1461042857610109565b80638da5cb5b146102bf57806395d89b41146102ea5780639af1d35a14610315578063a22cb4651461034057610109565b806323b872dd116100dc57806323b872dd146101dc57806342842e0e146102055780636352211e1461022e57806370a082311461026b578063715018a6146102a857610109565b806301ffc9a71461010e57806306fdde031461014b578063081812fc14610176578063095ea7b3146101b3575b600080fd5b34801561011a57600080fd5b5061013560048036038101906101309190611d2f565b610451565b6040516101429190611d77565b60405180910390f35b34801561015757600080fd5b50610160610533565b60405161016d9190611e2b565b60405180910390f35b34801561018257600080fd5b5061019d60048036038101906101989190611e83565b6105c5565b6040516101aa9190611ef1565b60405180910390f35b3480156101bf57600080fd5b506101da60048036038101906101d59190611f38565b61060b565b005b3480156101e857600080fd5b5061020360048036038101906101fe9190611f78565b610723565b005b34801561021157600080fd5b5061022c60048036038101906102279190611f78565b610783565b005b34801561023a57600080fd5b5061025560048036038101906102509190611e83565b6107a3565b6040516102629190611ef1565b60405180910390f35b34801561027757600080fd5b50610292600480360381019061028d9190611fcb565b610855565b60405161029f9190612007565b60405180910390f35b3480156102b457600080fd5b506102bd61090d565b005b3480156102cb57600080fd5b506102d4610921565b6040516102e19190611ef1565b60405180910390f35b3480156102f657600080fd5b506102ff61094b565b60405161030c9190611e2b565b60405180910390f35b34801561032157600080fd5b5061032a6109dd565b6040516103379190612007565b60405180910390f35b34801561034c57600080fd5b506103676004803603810190610362919061204e565b6109e3565b005b34801561037557600080fd5b50610390600480360381019061038b91906121c3565b6109f9565b005b34801561039e57600080fd5b506103b960048036038101906103b49190611e83565b610a5b565b6040516103c69190611e2b565b60405180910390f35b6103e960048036038101906103e491906122e7565b610a6d565b005b3480156103f757600080fd5b50610412600480360381019061040d9190612343565b610b8a565b60405161041f9190611d77565b60405180910390f35b34801561043457600080fd5b5061044f600480360381019061044a9190611fcb565b610c1e565b005b60007f80ac58cd000000000000000000000000000000000000000000000000000000007bffffffffffffffffffffffffffffffffffffffffffffffffffffffff1916827bffffffffffffffffffffffffffffffffffffffffffffffffffffffff1916148061051c57507f5b5e139f000000000000000000000000000000000000000000000000000000007bffffffffffffffffffffffffffffffffffffffffffffffffffffffff1916827bffffffffffffffffffffffffffffffffffffffffffffffffffffffff1916145b8061052c575061052b82610ca2565b5b9050919050565b606060008054610542906123b2565b80601f016020809104026020016040519081016040528092919081815260200182805461056e906123b2565b80156105bb5780601f10610590576101008083540402835291602001916105bb565b820191906000526020600020905b81548152906001019060200180831161059e57829003601f168201915b5050505050905090565b60006105d082610d0c565b6004600083815260200190815260200160002060009054906101000a900473ffffffffffffffffffffffffffffffffffffffff169050919050565b6000610616826107a3565b90508073ffffffffffffffffffffffffffffffffffffffff168373ffffffffffffffffffffffffffffffffffffffff161415610687576040517f08c379a000000000000000000000000000000000000000000000000000000000815260040161067e90612456565b60405180910390fd5b8073ffffffffffffffffffffffffffffffffffffffff166106a6610d57565b73ffffffffffffffffffffffffffffffffffffffff1614806106d557506106d4816106cf610d57565b610b8a565b5b610714576040517f08c379a000000000000000000000000000000000000000000000000000000000815260040161070b906124e8565b60405180910390fd5b61071e8383610d5f565b505050565b61073461072e610d57565b82610e18565b610773576040517f08c379a000000000000000000000000000000000000000000000000000000000815260040161076a9061257a565b60405180910390fd5b61077e838383610ead565b505050565b61079e838383604051806020016040528060008152506109f9565b505050565b6000806002600084815260200190815260200160002060009054906101000a900473ffffffffffffffffffffffffffffffffffffffff169050600073ffffffffffffffffffffffffffffffffffffffff168173ffffffffffffffffffffffffffffffffffffffff16141561084c576040517f08c379a0000000000000000000000000000000000000000000000000000000008152600401610843906125e6565b60405180910390fd5b80915050919050565b60008073ffffffffffffffffffffffffffffffffffffffff168273ffffffffffffffffffffffffffffffffffffffff1614156108c6576040517f08c379a00000000000000000000000000000000000000000000000000000000081526004016108bd90612678565b60405180910390fd5b600360008373ffffffffffffffffffffffffffffffffffffffff1673ffffffffffffffffffffffffffffffffffffffff168152602001908152602001600020549050919050565b610915611114565b61091f6000611192565b565b6000600760009054906101000a900473ffffffffffffffffffffffffffffffffffffffff16905090565b60606001805461095a906123b2565b80601f0160208091040260200160405190810160405280929190818152602001828054610986906123b2565b80156109d35780601f106109a8576101008083540402835291602001916109d3565b820191906000526020600020905b8154815290600101906020018083116109b657829003601f168201915b5050505050905090565b60095481565b6109f56109ee610d57565b8383611258565b5050565b610a0a610a04610d57565b83610e18565b610a49576040517f08c379a0000000000000000000000000000000000000000000000000000000008152600401610a409061257a565b60405180910390fd5b610a55848484846113c5565b50505050565b6060610a6682611421565b9050919050565b600954341015610ab2576040517f08c379a0000000000000000000000000000000000000000000000000000000008152600401610aa9906126e4565b60405180910390fd5b610aba610921565b73ffffffffffffffffffffffffffffffffffffffff166108fc6009549081150290604051600060405180830381858888f19350505050158015610b01573d6000803e3d6000fd5b506000610b0e6008611534565b9050610b1a6008611542565b610b248382611558565b610b2e8183611576565b60004790506000811115610b84573373ffffffffffffffffffffffffffffffffffffffff166108fc479081150290604051600060405180830381858888f19350505050158015610b82573d6000803e3d6000fd5b505b50505050565b6000600560008473ffffffffffffffffffffffffffffffffffffffff1673ffffffffffffffffffffffffffffffffffffffff16815260200190815260200160002060008373ffffffffffffffffffffffffffffffffffffffff1673ffffffffffffffffffffffffffffffffffffffff16815260200190815260200160002060009054906101000a900460ff16905092915050565b610c26611114565b600073ffffffffffffffffffffffffffffffffffffffff168173ffffffffffffffffffffffffffffffffffffffff161415610c96576040517f08c379a0000000000000000000000000000000000000000000000000000000008152600401610c8d90612776565b60405180910390fd5b610c9f81611192565b50565b60007f01ffc9a7000000000000000000000000000000000000000000000000000000007bffffffffffffffffffffffffffffffffffffffffffffffffffffffff1916827bffffffffffffffffffffffffffffffffffffffffffffffffffffffff1916149050919050565b610d15816115ea565b610d54576040517f08c379a0000000000000000000000000000000000000000000000000000000008152600401610d4b906125e6565b60405180910390fd5b50565b600033905090565b816004600083815260200190815260200160002060006101000a81548173ffffffffffffffffffffffffffffffffffffffff021916908373ffffffffffffffffffffffffffffffffffffffff160217905550808273ffffffffffffffffffffffffffffffffffffffff16610dd2836107a3565b73ffffffffffffffffffffffffffffffffffffffff167f8c5be1e5ebec7d5bd14f71427d1e84f3dd0314c0f7b2291e5b200ac8c7c3b92560405160405180910390a45050565b600080610e24836107a3565b90508073ffffffffffffffffffffffffffffffffffffffff168473ffffffffffffffffffffffffffffffffffffffff161480610e665750610e658185610b8a565b5b80610ea457508373ffffffffffffffffffffffffffffffffffffffff16610e8c846105c5565b73ffffffffffffffffffffffffffffffffffffffff16145b91505092915050565b8273ffffffffffffffffffffffffffffffffffffffff16610ecd826107a3565b73ffffffffffffffffffffffffffffffffffffffff1614610f23576040517f08c379a0000000000000000000000000000000000000000000000000000000008152600401610f1a90612808565b60405180910390fd5b600073ffffffffffffffffffffffffffffffffffffffff168273ffffffffffffffffffffffffffffffffffffffff161415610f93576040517f08c379a0000000000000000000000000000000000000000000000000000000008152600401610f8a9061289a565b60405180910390fd5b610f9e838383611656565b610fa9600082610d5f565b6001600360008573ffffffffffffffffffffffffffffffffffffffff1673ffffffffffffffffffffffffffffffffffffffff1681526020019081526020016000206000828254610ff991906128e9565b925050819055506001600360008473ffffffffffffffffffffffffffffffffffffffff1673ffffffffffffffffffffffffffffffffffffffff1681526020019081526020016000206000828254611050919061291d565b92505081905550816002600083815260200190815260200160002060006101000a81548173ffffffffffffffffffffffffffffffffffffffff021916908373ffffffffffffffffffffffffffffffffffffffff160217905550808273ffffffffffffffffffffffffffffffffffffffff168473ffffffffffffffffffffffffffffffffffffffff167fddf252ad1be2c89b69c2b068fc378daa952ba7f163c4a11628f55a4df523b3ef60405160405180910390a461110f83838361165b565b505050565b61111c610d57565b73ffffffffffffffffffffffffffffffffffffffff1661113a610921565b73ffffffffffffffffffffffffffffffffffffffff1614611190576040517f08c379a0000000000000000000000000000000000000000000000000000000008152600401611187906129bf565b60405180910390fd5b565b6000600760009054906101000a900473ffffffffffffffffffffffffffffffffffffffff16905081600760006101000a81548173ffffffffffffffffffffffffffffffffffffffff021916908373ffffffffffffffffffffffffffffffffffffffff1602179055508173ffffffffffffffffffffffffffffffffffffffff168173ffffffffffffffffffffffffffffffffffffffff167f8be0079c531659141344cd1fd0a4f28419497f9722a3daafe3b4186f6b6457e060405160405180910390a35050565b8173ffffffffffffffffffffffffffffffffffffffff168373ffffffffffffffffffffffffffffffffffffffff1614156112c7576040517f08c379a00000000000000000000000000000000000000000000000000000000081526004016112be90612a2b565b60405180910390fd5b80600560008573ffffffffffffffffffffffffffffffffffffffff1673ffffffffffffffffffffffffffffffffffffffff16815260200190815260200160002060008473ffffffffffffffffffffffffffffffffffffffff1673ffffffffffffffffffffffffffffffffffffffff16815260200190815260200160002060006101000a81548160ff0219169083151502179055508173ffffffffffffffffffffffffffffffffffffffff168373ffffffffffffffffffffffffffffffffffffffff167f17307eab39ab6107e8899845ad3d59bd9653f200f220920489ca2b5937696c31836040516113b89190611d77565b60405180910390a3505050565b6113d0848484610ead565b6113dc84848484611660565b61141b576040517f08c379a000000000000000000000000000000000000000000000000000000000815260040161141290612abd565b60405180910390fd5b50505050565b606061142c82610d0c565b600060066000848152602001908152602001600020805461144c906123b2565b80601f0160208091040260200160405190810160405280929190818152602001828054611478906123b2565b80156114c55780601f1061149a576101008083540402835291602001916114c5565b820191906000526020600020905b8154815290600101906020018083116114a857829003601f168201915b5050505050905060006114d66117e8565b90506000815114156114ec57819250505061152f565b600082511115611521578082604051602001611509929190612b19565b6040516020818303038152906040529250505061152f565b61152a846117ff565b925050505b919050565b600081600001549050919050565b6001816000016000828254019250508190555050565b611572828260405180602001604052806000815250611867565b5050565b61157f826115ea565b6115be576040517f08c379a00000000000000000000000000000000000000000000000000000000081526004016115b590612baf565b60405180910390fd5b806006600084815260200190815260200160002090805190602001906115e5929190611c20565b505050565b60008073ffffffffffffffffffffffffffffffffffffffff166002600084815260200190815260200160002060009054906101000a900473ffffffffffffffffffffffffffffffffffffffff1673ffffffffffffffffffffffffffffffffffffffff1614159050919050565b505050565b505050565b60006116818473ffffffffffffffffffffffffffffffffffffffff166118c2565b156117db578373ffffffffffffffffffffffffffffffffffffffff1663150b7a026116aa610d57565b8786866040518563ffffffff1660e01b81526004016116cc9493929190612c24565b6020604051808303816000875af192505050801561170857506040513d601f19601f820116820180604052508101906117059190612c85565b60015b61178b573d8060008114611738576040519150601f19603f3d011682016040523d82523d6000602084013e61173d565b606091505b50600081511415611783576040517f08c379a000000000000000000000000000000000000000000000000000000000815260040161177a90612abd565b60405180910390fd5b805181602001fd5b63150b7a0260e01b7bffffffffffffffffffffffffffffffffffffffffffffffffffffffff1916817bffffffffffffffffffffffffffffffffffffffffffffffffffffffff1916149150506117e0565b600190505b949350505050565b606060405180602001604052806000815250905090565b606061180a82610d0c565b60006118146117e8565b90506000815111611834576040518060200160405280600081525061185f565b8061183e846118e5565b60405160200161184f929190612b19565b6040516020818303038152906040525b915050919050565b6118718383611a46565b61187e6000848484611660565b6118bd576040517f08c379a00000000000000000000000000000000000000000000000000000000081526004016118b490612abd565b60405180910390fd5b505050565b6000808273ffffffffffffffffffffffffffffffffffffffff163b119050919050565b6060600082141561192d576040518060400160405280600181526020017f30000000000000000000000000000000000000000000000000000000000000008152509050611a41565b600082905060005b6000821461195f57808061194890612cb2565b915050600a826119589190612d2a565b9150611935565b60008167ffffffffffffffff81111561197b5761197a612098565b5b6040519080825280601f01601f1916602001820160405280156119ad5781602001600182028036833780820191505090505b5090505b60008514611a3a576001826119c691906128e9565b9150600a856119d59190612d5b565b60306119e1919061291d565b60f81b8183815181106119f7576119f6612d8c565b5b60200101907effffffffffffffffffffffffffffffffffffffffffffffffffffffffffffff1916908160001a905350600a85611a339190612d2a565b94506119b1565b8093505050505b919050565b600073ffffffffffffffffffffffffffffffffffffffff168273ffffffffffffffffffffffffffffffffffffffff161415611ab6576040517f08c379a0000000000000000000000000000000000000000000000000000000008152600401611aad90612e07565b60405180910390fd5b611abf816115ea565b15611aff576040517f08c379a0000000000000000000000000000000000000000000000000000000008152600401611af690612e73565b60405180910390fd5b611b0b60008383611656565b6001600360008473ffffffffffffffffffffffffffffffffffffffff1673ffffffffffffffffffffffffffffffffffffffff1681526020019081526020016000206000828254611b5b919061291d565b92505081905550816002600083815260200190815260200160002060006101000a81548173ffffffffffffffffffffffffffffffffffffffff021916908373ffffffffffffffffffffffffffffffffffffffff160217905550808273ffffffffffffffffffffffffffffffffffffffff16600073ffffffffffffffffffffffffffffffffffffffff167fddf252ad1be2c89b69c2b068fc378daa952ba7f163c4a11628f55a4df523b3ef60405160405180910390a4611c1c6000838361165b565b5050565b828054611c2c906123b2565b90600052602060002090601f016020900481019282611c4e5760008555611c95565b82601f10611c6757805160ff1916838001178555611c95565b82800160010185558215611c95579182015b82811115611c94578251825591602001919060010190611c79565b5b509050611ca29190611ca6565b5090565b5b80821115611cbf576000816000905550600101611ca7565b5090565b6000604051905090565b600080fd5b600080fd5b60007fffffffff0000000000000000000000000000000000000000000000000000000082169050919050565b611d0c81611cd7565b8114611d1757600080fd5b50565b600081359050611d2981611d03565b92915050565b600060208284031215611d4557611d44611ccd565b5b6000611d5384828501611d1a565b91505092915050565b60008115159050919050565b611d7181611d5c565b82525050565b6000602082019050611d8c6000830184611d68565b92915050565b600081519050919050565b600082825260208201905092915050565b60005b83811015611dcc578082015181840152602081019050611db1565b83811115611ddb576000848401525b50505050565b6000601f19601f8301169050919050565b6000611dfd82611d92565b611e078185611d9d565b9350611e17818560208601611dae565b611e2081611de1565b840191505092915050565b60006020820190508181036000830152611e458184611df2565b905092915050565b6000819050919050565b611e6081611e4d565b8114611e6b57600080fd5b50565b600081359050611e7d81611e57565b92915050565b600060208284031215611e9957611e98611ccd565b5b6000611ea784828501611e6e565b91505092915050565b600073ffffffffffffffffffffffffffffffffffffffff82169050919050565b6000611edb82611eb0565b9050919050565b611eeb81611ed0565b82525050565b6000602082019050611f066000830184611ee2565b92915050565b611f1581611ed0565b8114611f2057600080fd5b50565b600081359050611f3281611f0c565b92915050565b60008060408385031215611f4f57611f4e611ccd565b5b6000611f5d85828601611f23565b9250506020611f6e85828601611e6e565b9150509250929050565b600080600060608486031215611f9157611f90611ccd565b5b6000611f9f86828701611f23565b9350506020611fb086828701611f23565b9250506040611fc186828701611e6e565b9150509250925092565b600060208284031215611fe157611fe0611ccd565b5b6000611fef84828501611f23565b91505092915050565b61200181611e4d565b82525050565b600060208201905061201c6000830184611ff8565b92915050565b61202b81611d5c565b811461203657600080fd5b50565b60008135905061204881612022565b92915050565b6000806040838503121561206557612064611ccd565b5b600061207385828601611f23565b925050602061208485828601612039565b9150509250929050565b600080fd5b600080fd5b7f4e487b7100000000000000000000000000000000000000000000000000000000600052604160045260246000fd5b6120d082611de1565b810181811067ffffffffffffffff821117156120ef576120ee612098565b5b80604052505050565b6000612102611cc3565b905061210e82826120c7565b919050565b600067ffffffffffffffff82111561212e5761212d612098565b5b61213782611de1565b9050602081019050919050565b82818337600083830152505050565b600061216661216184612113565b6120f8565b90508281526020810184848401111561218257612181612093565b5b61218d848285612144565b509392505050565b600082601f8301126121aa576121a961208e565b5b81356121ba848260208601612153565b91505092915050565b600080600080608085870312156121dd576121dc611ccd565b5b60006121eb87828801611f23565b94505060206121fc87828801611f23565b935050604061220d87828801611e6e565b925050606085013567ffffffffffffffff81111561222e5761222d611cd2565b5b61223a87828801612195565b91505092959194509250565b600067ffffffffffffffff82111561226157612260612098565b5b61226a82611de1565b9050602081019050919050565b600061228a61228584612246565b6120f8565b9050828152602081018484840111156122a6576122a5612093565b5b6122b1848285612144565b509392505050565b600082601f8301126122ce576122cd61208e565b5b81356122de848260208601612277565b91505092915050565b600080604083850312156122fe576122fd611ccd565b5b600061230c85828601611f23565b925050602083013567ffffffffffffffff81111561232d5761232c611cd2565b5b612339858286016122b9565b9150509250929050565b6000806040838503121561235a57612359611ccd565b5b600061236885828601611f23565b925050602061237985828601611f23565b9150509250929050565b7f4e487b7100000000000000000000000000000000000000000000000000000000600052602260045260246000fd5b600060028204905060018216806123ca57607f821691505b602082108114156123de576123dd612383565b5b50919050565b7f4552433732313a20617070726f76616c20746f2063757272656e74206f776e6560008201527f7200000000000000000000000000000000000000000000000000000000000000602082015250565b6000612440602183611d9d565b915061244b826123e4565b604082019050919050565b6000602082019050818103600083015261246f81612433565b9050919050565b7f4552433732313a20617070726f76652063616c6c6572206973206e6f7420746f60008201527f6b656e206f776e6572206e6f7220617070726f76656420666f7220616c6c0000602082015250565b60006124d2603e83611d9d565b91506124dd82612476565b604082019050919050565b60006020820190508181036000830152612501816124c5565b9050919050565b7f4552433732313a2063616c6c6572206973206e6f7420746f6b656e206f776e6560008201527f72206e6f7220617070726f766564000000000000000000000000000000000000602082015250565b6000612564602e83611d9d565b915061256f82612508565b604082019050919050565b6000602082019050818103600083015261259381612557565b9050919050565b7f4552433732313a20696e76616c696420746f6b656e2049440000000000000000600082015250565b60006125d0601883611d9d565b91506125db8261259a565b602082019050919050565b600060208201905081810360008301526125ff816125c3565b9050919050565b7f4552433732313a2061646472657373207a65726f206973206e6f74206120766160008201527f6c6964206f776e65720000000000000000000000000000000000000000000000602082015250565b6000612662602983611d9d565b915061266d82612606565b604082019050919050565b6000602082019050818103600083015261269181612655565b9050919050565b7f6e6f7420656e6f756768204d4154494300000000000000000000000000000000600082015250565b60006126ce601083611d9d565b91506126d982612698565b602082019050919050565b600060208201905081810360008301526126fd816126c1565b9050919050565b7f4f776e61626c653a206e6577206f776e657220697320746865207a65726f206160008201527f6464726573730000000000000000000000000000000000000000000000000000602082015250565b6000612760602683611d9d565b915061276b82612704565b604082019050919050565b6000602082019050818103600083015261278f81612753565b9050919050565b7f4552433732313a207472616e736665722066726f6d20696e636f72726563742060008201527f6f776e6572000000000000000000000000000000000000000000000000000000602082015250565b60006127f2602583611d9d565b91506127fd82612796565b604082019050919050565b60006020820190508181036000830152612821816127e5565b9050919050565b7f4552433732313a207472616e7366657220746f20746865207a65726f2061646460008201527f7265737300000000000000000000000000000000000000000000000000000000602082015250565b6000612884602483611d9d565b915061288f82612828565b604082019050919050565b600060208201905081810360008301526128b381612877565b9050919050565b7f4e487b7100000000000000000000000000000000000000000000000000000000600052601160045260246000fd5b60006128f482611e4d565b91506128ff83611e4d565b925082821015612912576129116128ba565b5b828203905092915050565b600061292882611e4d565b915061293383611e4d565b9250827fffffffffffffffffffffffffffffffffffffffffffffffffffffffffffffffff03821115612968576129676128ba565b5b828201905092915050565b7f4f776e61626c653a2063616c6c6572206973206e6f7420746865206f776e6572600082015250565b60006129a9602083611d9d565b91506129b482612973565b602082019050919050565b600060208201905081810360008301526129d88161299c565b9050919050565b7f4552433732313a20617070726f766520746f2063616c6c657200000000000000600082015250565b6000612a15601983611d9d565b9150612a20826129df565b602082019050919050565b60006020820190508181036000830152612a4481612a08565b9050919050565b7f4552433732313a207472616e7366657220746f206e6f6e20455243373231526560008201527f63656976657220696d706c656d656e7465720000000000000000000000000000602082015250565b6000612aa7603283611d9d565b9150612ab282612a4b565b604082019050919050565b60006020820190508181036000830152612ad681612a9a565b9050919050565b600081905092915050565b6000612af382611d92565b612afd8185612add565b9350612b0d818560208601611dae565b80840191505092915050565b6000612b258285612ae8565b9150612b318284612ae8565b91508190509392505050565b7f45524337323155524953746f726167653a2055524920736574206f66206e6f6e60008201527f6578697374656e7420746f6b656e000000000000000000000000000000000000602082015250565b6000612b99602e83611d9d565b9150612ba482612b3d565b604082019050919050565b60006020820190508181036000830152612bc881612b8c565b9050919050565b600081519050919050565b600082825260208201905092915050565b6000612bf682612bcf565b612c008185612bda565b9350612c10818560208601611dae565b612c1981611de1565b840191505092915050565b6000608082019050612c396000830187611ee2565b612c466020830186611ee2565b612c536040830185611ff8565b8181036060830152612c658184612beb565b905095945050505050565b600081519050612c7f81611d03565b92915050565b600060208284031215612c9b57612c9a611ccd565b5b6000612ca984828501612c70565b91505092915050565b6000612cbd82611e4d565b91507fffffffffffffffffffffffffffffffffffffffffffffffffffffffffffffffff821415612cf057612cef6128ba565b5b600182019050919050565b7f4e487b7100000000000000000000000000000000000000000000000000000000600052601260045260246000fd5b6000612d3582611e4d565b9150612d4083611e4d565b925082612d5057612d4f612cfb565b5b828204905092915050565b6000612d6682611e4d565b9150612d7183611e4d565b925082612d8157612d80612cfb565b5b828206905092915050565b7f4e487b7100000000000000000000000000000000000000000000000000000000600052603260045260246000fd5b7f4552433732313a206d696e7420746f20746865207a65726f2061646472657373600082015250565b6000612df1602083611d9d565b9150612dfc82612dbb565b602082019050919050565b60006020820190508181036000830152612e2081612de4565b9050919050565b7f4552433732313a20746f6b656e20616c7265616479206d696e74656400000000600082015250565b6000612e5d601c83611d9d565b9150612e6882612e27565b602082019050919050565b60006020820190508181036000830152612e8c81612e50565b905091905056fea2646970667358221220e822a2ce4541a13cd28dd7204935917cfe0e001a1ebe70e7e7e50657a53eeb3e64736f6c634300080b0033",
  "linkReferences": {},
  "deployedLinkReferences": {}
}